:10000000F01F0010292700002527000025270000E9
:1000100025270000252700002527000000000000FC
:100020000000000000000000000000002527000084
:1000300025270000000000002527000031230000D4
:10004000851F0000851F0000851F0000851F000020
:10005000851F0000851F0000851F0000851F000010
:10006000851F0000851F0000851F0000851F000000
:10007000851F00002127000019200000151E000028
:10008000012400001924000031240000492400004C
:10009000CD1F00006124000021270000212700005F
:1000A00021270000AD2600002127000021270000A5
:1000B0002127000021270000212700002127000020
:1000C00008B50378002B04D000200721012201F09D
:1000D00073FE08BD70B5041C161C0D1C02F07CF9E3
:1000E0002060031C32680A3B9A420AD92B68984266
:1000F0000CD0074B28601A6801231A400020072102
:1001000002E000200721021C01F056FE70BDC0462F
:10011000A403001038B50C1C051C20680A2102F04D
:1001200071FB3031E97020680A2102F027FB013DA4
:1001300020600028F1D138BDF8B502F0C7FA364981
:10014000002000F0E1FE354C2070201CFFF7B8FFC6
:10015000334D2F21281C01F04EF92070201CFFF791
:10016000AFFF304B00222E1C2F4D1A60291C301C73
:1001700001F073F9294C2070201CFFF7A1FF2949D9
:100180000B6801330B602378002B02D16B7A002BB4
:10019000ECD12648FFF7BEFF254A00231360254A0D
:1001A0001360254A13602548062102F00BFA244FFC
:1001B000244E381C311C02F030FA234B18700028F2
:1001C00024D0224C13221949201C00F0B3FE134DF9
:1001D0002870281CFFF774FFE168201C01F06FF8FD
:1001E0002870281CFFF76CFF3268194B013A391C44
:1001F000201C00F042FF2870281CFFF761FF201C24
:1002000001F055F802F0E8F8094B18600A4809496E
:10021000074AFFF75FFFC6E718000010E003001071
:10022000C4030010D0020010AC0300100600001040
:10023000A8030010A4030010080400100000001020
:10024000500200104C02001014000010E4030010D3
:100250004802001010B5002302E0CC5CC454013306
:100260009342FAD110BD10B503690A1C0932002B64
:1002700033D0436900201C5C202C07D0052C00D112
:10028000E5240130147001320828F4D1187A2028AE
:100290000BD02E201070013208201C5C202C04D0C2
:1002A0000130147001320B28F7D1D87A0872DC7F44
:1002B000987F2406000420431C7F20435C7F240297
:1002C00020430860587E1C7E000220438880DC7D2D
:1002D000987D2402231C0343CB800023137010BDA0
:1002E000F7B5C56A041C0F1C00228D422FD003797C
:1002F00093421FD0031C30330193191C2A1C4078F1
:10030000012301F0D1FA0122002820D1A269236A39
:100310002071D3189D420DD2E67809E0A369607878
:10032000ED1801992A1C012301F0BEFA013EF6B234
:10033000012EF3D83A1E0AD0211C607830310123F7
:1003400001F06CFA0122002801D1E762021C101CA6
:10035000FEBD000038B50021041CFFF7C1FF031EDD
:1003600053D12378032B48D16379002B45D0211C2E
:100370008023E0623031021C9B000A540130984215
:10038000FBD1234B5522E254224BAA22E254221CD9
:100390003032522313705370201C6123937033301A
:1003A000412285250270AD00722060551A4D6055BE
:1003B0001A4822541A4AA354236986229200A3544D
:1003C000184A180AA054184A180CA054174A1B0EB1
:1003D000A354E36887229200A354154A180AA05434
:1003E000144A180CA054144A1B0EA354607801231D
:1003F000626901F059FA00236371002160780A1CD8
:1004000001F0A6FA031C581E8341181C38BDC046D3
:100410002E0200002F02000015020000160200004C
:1004200017020000190200001A0200001B0200005F
:100430001D0200001E0200001F02000010B5041C77
:100440000A1C211C01234078303101F0E7F9032315
:10045000002837D11C4B1D4AE15C1D4B0902E35CAF
:10046000194309B2022391422CD1231C6933197814
:10047000013B1B7809061B041943231C66331B78B8
:10048000144A1943231C67331B781B0219430902C2
:10049000090A031C914215D0231C85331A78013BAD
:1004A0001B7812061B041343221C823212788334F9
:1004B00013432278120213431B02074A1B0A9B189C
:1004C0005A1E9341181C10BD2F02000055AAFFFFB1
:1004D0002E02000046415400BABEABFF08B5031C13
:1004E0000920002B0CD01A78002A09D0DA888A4219
:1004F00006D1587801F088F90123184000D0032074
:1005000008BDF7B50125041C0E1CA94262D9C369B8
:1005100099425FD20378076A022B2CD0032B3BD081
:10052000AB4255D14B085B18590AC9190093FFF724
:10053000D7FE00284CD1009A201CD305DB0DE31810
:10054000521930331B78510AC91901930092FFF7F1
:10055000C7FE00283CD1009AD305DB0DE4183034E7
:100560002378019A1B0213432E4201D01D0931E06A
:100570001D052D0D2EE0090AC919FFF7B1FE00284F
:1005800026D13606F60DA419231C31331D783034DC
:1005900023782D021D431DE0C909C919FFF7A0FEEC
:1005A000002815D17606F60DA419231C33331D78C7
:1005B000013B1B782D061B041D43231C30331B7885
:1005C00031341D4323781B021D432D012D0901E009
:1005D00001256D42281CFEBDF7B5041C0D1C161C20
:1005E0000220012970D9E36999426DD2236A2778E4
:1005F0000093874240D0032F4FD0012F62D14B0888
:100600005B18590A0193009B201CC918FFF768FE6C
:10061000002857D1019B2F40DA05D20DF3B2002FED
:1006200008D0A118303108780F2108401901031CA7
:100630000B43DBB2A2183032019D13700123013548
:100640002371009B690AC918201CFFF749FE002886
:1006500038D1ED05ED0D002F02D03609F6B208E0D5
:10066000631930331A780F239A43360A3340161C25
:100670001E436519303524E0009B090AC918201C67
:10068000FFF72EFE00281DD12D06ED0D65192B1C40
:1006900030331E703135360A13E0009BC909C91882
:1006A000201CFFF71DFE00280CD16D06ED0D65190D
:1006B0002B1C3033320A5A70320C1E709A7033354C
:1006C000360E2E7001232371FEBD0000F7B5C269FE
:1006D000041C0F1C0192002909D1C6680B1C96420C
:1006E0004B41DBB2002B0BD1002E09D009E0FFF704
:1006F00008FF012837D9019B3E1C984201D23AE0FD
:100700000126351C019A0135954202D3012E2CD9C0
:100710000225201C291CFFF7F4FE002809D001281F
:1007200029D0431C5A425341002B24D1B542E9D170
:100730001DE0201C291C104AFFF74EFF002818D18D
:10074000002F06D0201C391C2A1CFFF745FF00286B
:100750000FD12369E560281C5A1C0CD0013B236192
:100760000123637107E0012005E0002003E0181C6D
:1007700001E001204042FEBDFFFFFF0FF8B5051C60
:100780000C1C0220012927D9EB69994224D218E0D8
:10079000281C211CFFF7B5FE061E18D0012E18D00C
:1007A000721C18D0281C211C0022FFF715FF0028FE
:1007B00012D12B695A1C02D001332B616F71341C8A
:1007C00000E00127EB699C42E2D3002004E0301CEA
:1007D00002E0022000E00120F8BD00B5C269023944
:1007E000023A031C0020914203D298789B6A484346
:1007F000C01800BD70B5041C0D1CE180816802208A
:1008000001293BD02368DA69914237D2002910D1FF
:100810001A78032A02D1596A00290AD10022E2601B
:100820001A890220AA4229D95B6A2A09D3182361AE
:1008300018E09E7836010CE0FFF763FE011C431CB4
:1008400019D0012819D92368DB69984215D2AD1B4C
:10085000ADB22068B542EFD2E160FFF7BEFF2B09D1
:100860001818206123680F22154030336D015D197F
:100870006561002002E0012000E0022070BDF7B5B4
:100880000191C788051C0137BFB20424002F6ED028
:100890000369002B6BD03A075ED1C1680133036155
:1008A0000068002903D10389BB4260D954E08378F2
:1008B0003A09013B1A424FD1FFF723FE0224061CDE
:1008C000012854D90124431C51D02868C3699E4291
:1008D0003CD3019A0424002A49D0E968FFF7F6FEC8
:1008E0000724061C002842D0022401283FD00124FE
:1008F000431C3CD028680021FFF7F2FC002836D1C9
:10090000296880233031021C9B000A540130984230
:10091000FBD12C68311C201CFFF75FFFE062002434
:100920000DE001221A7128680021FFF7D9FC002888
:100930001CD12B680134DA6AE4B20132DA622B6826
:100940009A78A242EDD8DA6A141BDC62EE6028685D
:10095000311CFFF742FF28612B680F22EF80174000
:1009600030337F01DF196F61002400E00124201C77
:10097000FEBD0000F0B585B0041C0D1C00E0013583
:100980002B78202BFBD05C2B01D02F2B00D10135F5
:100990000026A6602B781F2B05D8201C311CFFF7E2
:1009A00029FF6661C4E0A06900232021C1540133FE
:1009B0000B2BFAD100210822029203910A1C08266F
:1009C0000194039C2F272B5D7F420134FF18039471
:1009D0007C427C410294002C40D120279F426441FC
:1009E000271C002C3AD15C2B40D02E2B06D0CC17E4
:1009F000F70FB1426741FFB2002F0AD02E2B00D073
:100A000093E0082E00D090E09200D2B208210B268D
:100A1000D7E75FB2002F02DA464F803BFB5C464FC0
:100A20009C46019C00E001373B78002B02D06345D7
:100A3000F9D17AE06746413F63460194192F02D805
:100A400002273A4307E06746613F192F03D8012781
:100A5000203B3A43DBB243540131B2E70296002710
:100A600020269E427F41019CBF0001E0019C02962E
:100A700000295AD00378E52B01D105230370029990
:100A8000082901D19200D2B203231340012B01D1D6
:100A900010231F430C231A40042A01D108231F43AB
:100AA000C7720021201CFFF7A5FE00281DD1206879
:100AB0002169FFF715FC002817D162691378002B14
:100AC00012D0D37A0826334209D1A169031C01E070
:100AD0000B2B0AD0D75CCE5C0133B742F8D0201C78
:100AE0000021FFF7CCFEE0E70420A369DA7A0423B3
:100AF0001340002804D0002B1AD1042817D017E087
:100B0000002B15D16369DA7AD70610D55A7D197D85
:100B1000D87E12020A430002997E031C039E12042F
:100B20000B431343AD19A3603DE7062000E0052009
:100B300005B0F0BD272800001C28000070B500217A
:100B4000041CFFF757FE051E24D120682169FFF71A
:100B5000C7FB051E1ED163691B78002B1CD0E52B3B
:100B60001AD0201C0121FFF78AFEECE766692B1CD6
:100B70002A1CF2540133202BFBD10B22A169301C1B
:100B8000FFF768FBA369DA7A1823134033732368ED
:100B900001221A71281C70BD20682169FFF7A0FB93
:100BA000051EE3D0F6E738B5041C0423082515E03C
:100BB0002068FFF795FB00281AD162691378002B93
:100BC00015D02E2B04D0E52B02D0D37A2B420DD09A
:100BD000201C0021FFF753FE031E09D121690029C3
:100BE000E6D1181E02D000222261181C38BD042054
:100BF000031CF8E7F7B50368161C1D78303D092D76
:100C000009D85A783A2A06D1023303600B23012D02
:100C100000D93AE100E00025A74BAA00D4580C23E4
:100C20000C60002C00D130E12378002B0DD06078CF
:100C300000F0EAFDC20708D4331E00D125E10423E9
:100C4000034000D121E10A231FE10023E8B2237011
:100C5000607000F00DFD0323C20700D515E1002EE2
:100C600003D00A23420700D50FE1201C0021FFF723
:100C7000E5FB002501281AD1F9235B00E25C0D2376
:100C8000AA4200D101E18D4B201CE55CFC235B00F6
:100C9000E35C2D061B041D43FB235B00E35C1D434B
:100CA000874BE35C1B021D43291CFFF7C7FB012395
:100CB000032800D1E9E00D23002800D0E5E0221C44
:100CC0003C321178013A12780902114309B28022AC
:100CD0009200914200D0D8E0231C47331F78013B9B
:100CE0001B783F021F4310D1231C57331F78013B51
:100CF0001B783F061B041F43231C54331B781F43E0
:100D0000231C55331B781B021F43231CA761403350
:100D10001B78261CE3707B430093231C3F331A7817
:100D2000013B197812020A43AF182762013B197878
:100D30004336A170587904331B7800021843231CF2
:100D4000208144331B7836781B02334310D1231C97
:100D500053331E78013B1B7836061B043343261C95
:100D6000503636783343261C5136367836023343B4
:100D700000090190981A009B019AC01A801A01F08C
:100D8000FDFC504B0230E0610126984204D94E4BE5
:100D9000984200D97BE00226009AD3196362019B36
:100DA000009AFF1801235B42BF1823610023A7624A
:100DB0002371032E60D16371231C61331A78013BC8
:100DC0001B7812021A43271CAA1830376261607818
:100DD000391C012300F022FD00284DD13B4BE25C81
:100DE0003B4B1202E35C1A433A4B12B29A4243D194
:100DF000231C33331A78013B1B7812061B041A4359
:100E00003B781A43231C31331B781B021A43324BA5
:100E10009A4231D1314BE25C314B1206E35C1B0448
:100E20001A4385239B00E35C1A432E4BE35C1B02B1
:100E30001A432D4B9A421FD12C4BE25C2C4B1206CD
:100E4000E35C1B04134387229200A25C1343294AEC
:100E5000A25C12021343E360274BE25C274B1206AD
:100E6000E35C1B04134386229200A25C1343244AD2
:100E7000A25C120213432361224900230A882670D0
:100E8000013292B2E3620A80E280181CFEBD231C8C
:100E90005F331A78013B1B7812061B041343221C94
:100EA0005C32127803261343221C5D321278120240
:100EB0001343636273E7C046D8020010F9010000D3
:100EC000F7010000F60F0000F6FF00002F020000FF
:100ED0002E02000055AAFFFF525261411702000086
:100EE0001602000015020000727241611F0200002C
:100EF0001E0200001D0200001B0200001A0200007A
:100F000019020000D402001010B50B2301280DD8DF
:100F1000074B8200D2581C1C00239A4200D0137049
:100F2000002900D00B70800021500023181C10BD38
:100F3000D8020010F0B500230360161C1F238DB0EB
:100F40001E401E22051C0191324001A802A9FFF794
:100F500051FE002800D08EE009AB02A80199089349
:100F6000FFF708FD1C231E4253D000280BD0042895
:100F700000D080E002A8FFF7E1FD00287BD1082324
:100F80001E43079C32E00820720774D4079C072098
:100F9000002C70D0E27A112313406CD1320725D592
:100FA000627D217DE77E0298120223756375E376E8
:100FB00023776377A377E3770A43A17EA3760123A0
:100FC0003F020371C36A12040F431743009307D013
:100FD000391CFFF7D3FB00284DD1029B013FDF6096
:100FE00002980099FFF77CF9002844D132071ED5FA
:100FF0000023E37201F068FB030AE373030C23741C
:10100000029BA0730122000E60741A7120231E43FC
:101010000DE000282FD1079C0420002C2BD0E37A70
:10102000DA0628D4B20702D50720DA0723D4029BB8
:10103000DA6AAE71EA61079A2A62617D207DE27EFA
:1010400009020143A07E1202090402430A432A61F5
:10105000E17FA27F090612040A43217F00200A4390
:10106000617FA86009020A43EA60FF22EA71A86171
:101070002B60DB88AB800DB0F0BDF0B585B003937D
:101080000F1C03990023041C0B600068A188161C28
:10109000FFF724FA051E00D0CAE0A279022351B25C
:1010A000002900DAC1E01A4200D1C0E0E368291C3F
:1010B000F2189A4269414B4201971E402F1CA6E04C
:1010C000A368DA0574D12068E1798278914217D358
:1010D000002B07D1216900290BD1FFF7F7FA011C7A
:1010E000206103E06169FFF7F1FA011C002900D1DA
:1010F00090E0012916D04A1C61D000236161E371A0
:101100002068A369C26A9A4204D10021FFF7E8F877
:10111000002854D123686169181C0093FFF75DFB18
:10112000002806D1A27980235B421343A3710225D4
:101130007EE0E379750AC0180290002D26D0009950
:101140008A78E918914200D9D51A009AEBB2507802
:101150000199029A00F0A8FB009000282FD1206886
:10116000029BC16AC91AA9420BD2019A49025118BD
:10117000802230309200FFF76DF8694623680978C5
:101180001971E379EB18E3716D0235E0A268E36849
:101190009A4208D30098291CFFF7A2F800280ED124
:1011A0002368029ADA62029BA361E3790133E37157
:1011B0002068A169A568FFF793F8002806D0A279F6
:1011C00080235B421343A371012531E0EB058021AD
:1011D000DB0D8900CB1A351C9E4200D91D1CA0686E
:1011E0002368C005C00D303018182A1C0199FFF77C
:1011F00031F8236801221A71019B03995B1901934D
:10120000A368761B5B19A3600B685B190B60002E4B
:1012100000D055E7A368E2683D1C934200D9E36023
:10122000A37920221343A37102E01D1C00E00725CF
:10123000281C05B0F0BD70B5041CA1880068FFF73C
:101240004DF9002832D1A379202633422ED02068D0
:10125000E169FFF745F8002828D1256AEB7A334386
:10126000EB72E3682B77A3891B0A6B77E389AB7773
:10127000E37BEB772369AB76238A1B0AEB76638AE1
:101280002B75638A1B0A6B7501F01EFA030AA87599
:10129000EB75030C000E2B766876A3790122B3431D
:1012A000A37123681A712068FFF754F870BD10B558
:1012B000041CFFF7C0FF002800D1206010BDF0B56E
:1012C000051C85B00E1C0068A988FFF707F9071EEA
:1012D00000D08DE0AA7953B2002B00DA87E0EB68EA
:1012E0009E4202D9910700D41E1C0022AB68AA605E
:1012F000FF22EA71301E6AD02A6802929278520266
:101300000192002B14D0013B111C701E039301F0BD
:1013100035FA0199041C039801F030FA844207D38E
:101320000199039A4B421340AB60F61A69690CE0CD
:101330002969002908D10298FFF7C8F9011C012882
:101340003CD0431C12D028616961081E3FD021E0C7
:10135000AB792868234204D0FFF7B8F9011E03D106
:101360001DE0FFF7CEF8011C4A1C06D1AA798023A4
:101370005B421343AB7101273AE001291ED92B6868
:10138000DB6999421AD2AB68019A69619B18AB601C
:10139000B61A00E00224019B9E42D9D800E0019ECB
:1013A000AB68740A9B19E4B2F605AB60EC71F00D02
:1013B0000DD02868FFF711FA002805D1AA798023FB
:1013C0005B421343AB7112E000190134EC71AB685E
:1013D000DA0503D0AA69904200D0A861EA68934276
:1013E00006D9EB60AB7920221343AB7100E00227F2
:1013F000381C05B0F0BD10B586B0041C019101A8E1
:10140000211C0022FFF7F6FB002824D103ABA361C7
:10141000201C0199FFF7AEFA002819D16369002B4F
:101420000FD0DA7A0520D10615D55A7D197DD87EE0
:1014300012020A430002997E031C12040B43134359
:10144000A3602368201CDB880021A380FFF7D2F96A
:10145000042800D1052006B010BD7FB5041C0E1C69
:101460000068A188FFF73AF8051E1ED101ABA36101
:10147000201C002E03D1291CFFF7BCF914E0FFF754
:1014800092FB042801D1256101E000280CD1201C29
:10149000311CFEF7E8FE201C0021FFF7F0F90428BC
:1014A00002D10023236100E0051C281C04B070BD9C
:1014B00008B502200521002200F07EFC08BD07B51A
:1014C0006946073108700120021C00F0BFFE07BD0D
:1014D00013B56C460023E37101200734021C211C64
:1014E00000F0F4FE207816BD10B5064C32232370B0
:1014F000FFF7EEFFFFF7ECFFFF2802D02378002B69
:10150000F8D110BDE202001008B50220002101222E
:1015100000F052FCFFF7DCFF08BD08B500210220F7
:101520000A1C00F049FCFFF7DFFF0123FF2802D06F
:10153000FFF7EAFF0023181C08BD38B543B2041CAE
:101540000D1C002B07DA77200021FFF7F6FF01289A
:1015500030D87F231C40FFF7D7FFFFF7DEFF031CC7
:10156000FF20002B26D0201CFFF7A9FF280EFFF735
:10157000A6FF280CC0B2FFF7A2FF280AC0B2FFF7EF
:101580009EFFE8B2FFF79BFF9520402C03D08720F9
:10159000482C00D00120FFF792FF4C2C01D1FFF71F
:1015A00097FF0A24FFF794FF030603D5013CE4B23A
:1015B000002CF7D138BD38B5041C0D1CFFF794FF83
:1015C0000023FF281ED1281CFFF779FF0123FD2DE2
:1015D00018D080239B00E5182078FFF770FF607813
:1015E0000234FFF76CFFAC42F6D1FF20FFF767FF34
:1015F000FF20FFF764FFFFF76BFF1F230340053B4E
:101600005A425341181C38BD70B5184E1423041C9F
:101610000D1C3370FFF75CFF031CFF2803D13078EB
:101620000028F7D120E00020FE2B1DD10120211C35
:10163000021C00F04BFE0120611C021C00F046FE63
:101640000120A11C021C00F041FE261C0120F11CFF
:10165000021C043D043400F039FE002DE6D1FFF7F2
:1016600037FFFFF735FF012070BDC046E1020010D3
:10167000F7B500210A1C041C012000F0F3FC022035
:101680000021012200F04AFB02200421002200F088
:1016900045FB01220220052100F040FB52480021B9
:1016A00000F0A4FBFFF704FF142000F079FE0122F4
:1016B000002C00D096E04D4B02241978214200D036
:1016C0008FE00521201C4A4F00F076FB05233B608C
:1016D0004849494A494B0A6064251C60013DEDB206
:1016E000FFF7F6FE002DF9D14020291CFFF725FF5A
:1016F0002C1C061C01285ED1414B6422D5211A7096
:1017000048204900FFF719FF012830D1FFF7E0FE1C
:1017100001ABE8540135042DF8D19A780024012A50
:1017200049D1DB78AA2B46D1354C2378251C002BD8
:1017300006D08021E920C905FFF7FFFE0028F4D17B
:101740002C78002C37D07A200021FFF7F6FE0024F9
:10175000A04230D1041CFFF7BBFE01ABE0540134C2
:10176000042CF8D11B785A0625D50C2423E0E92057
:10177000291CFFF7E2FE012802D80224E92501E036
:10178000341C41251E4E3378002B05D0281C002127
:10179000FFF7D3FE0028F6D1194A1378002B09D0A1
:1017A000802150208900FFF7C8FE43425841404243
:1017B000044000E01C1C134B1C70FFF7A5FE002C1E
:1017C0000CD00A4A01231178994311703B60094AF1
:1017D000094B1360094A0223136001E0FFF768FE1A
:1017E000024B1A78101CFEBD444004401300001048
:1017F0009C800440008005400708000010800540E0
:10180000E1020010E302001000B5031C0120002BD0
:1018100001D1014B187800BD1300001038B50D1C24
:101820001C1E111C002C39D0002837D11C4B032062
:101830001B78DA0733D41B4B1B781A0700D44902F4
:10184000012C0ED15120FFF778FE002820D18021F5
:10185000281C8900FFF7D8FE43425841404204400B
:1018600016E05220FFF769FE002811D18021281CC4
:101870008900FFF7C9FE002806D08023013C9B00A9
:10188000E4B2ED18002CF1D14C200021FFF755FEF9
:10189000FFF73AFE201C441EA04100E0042038BDA2
:1018A00013000010E302001070B50D1C161C1C1E66
:1018B00047D0002845D1244B03201A78D10741D4C2
:1018C0001B7802205A073DD4204B1B78190700D4FF
:1018D0007602012C0ED15820311CFFF72EFE002875
:1018E00029D1281CFE21FFF766FE434258414042A1
:1018F000044020E00622134203D0D720211CFFF72A
:101900001CFE5920311CFFF718FE002813D1281C9B
:10191000FC21FFF750FE002806D08022013C9200F7
:10192000E4B2AD18002CF2D10020FD21FFF743FEF8
:10193000002800D10124FFF7E7FD201C441EA04130
:1019400000E0042070BDC04613000010E302001048
:10195000F0B585B0071C151C0424002800D002E156
:10196000A14220D11678012E10D0002E03D0022ED5
:1019700000D0F8E010E00220052100F0F3F9041E89
:1019800000D1F0E0FFF794FD341CECE002200521CB
:10199000321C00F011FA04E0301C052100F0E2F9DD
:1019A00068703C1CDFE0714B03241B78DA0700D51C
:1019B000D9E00E2900D9D3E0081C00F0D5FE0811AB
:1019C0004C50D1D1D1D1D1D1A1A5A7B1C100FFF740
:1019D000A4FD0124002800D1C3E0FFF795FDADE090
:1019E00049200021FFF7A9FD0124061C002800D092
:1019F000B7E068461021FFF707FE002800D1B0E0ED
:101A00006B461A781B7A9209A24207D16C46627A19
:101A10001B020132D3189BB29B0219E06946CA79B6
:101A20009B09920089799A1803231940013289028F
:101A300051186A4650796C460F220240A07AC009BC
:101A40001218607A03405B00D218073A0B1C9340CF
:101A50002B60341C85E080239B002B806EE0444E7D
:101A60000423317819401CD0CD200021FFF765FDFB
:101A70000124002875D1FFF72BFD68461021FFF7E0
:101A8000C3FD00286DD03024013CE4B2FFF720FDF7
:101A9000002CF9D169468B7A10221B099A40131C3D
:101AA0002CE04920FFF749FD0124071C002858D1EC
:101AB00068461021FFF7A8FD002852D03478022391
:101AC0001C406B469A7ADB7A002C0DD03F216C4685
:101AD0000A40617B5200DB09D318890901330139BF
:101AE0008B402B603C1C3CE0032119405206C9008E
:101AF0005B09D20ECB180132013353432B6030E027
:101B00001B4B1B782B7019E0492000E04A20002174
:101B1000FFF713FD0124002823D1281C10211AE00F
:101B20007A200021FFF709FD0124002819D1041CA7
:101B3000FFF7CEFC28550134042CF9D1002410E025
:101B4000CD200021FFF7F9FC0124002809D1FFF77F
:101B5000BFFC281C4021FFF757FD4442444100E0F0
:101B60000424FFF7D1FC201C05B0F0BD13000010C9
:101B7000E302001038B5124B1A78002A02D0013A5D
:101B8000D2B21A700F4B1A78002A02D0013AD2B2A0
:101B90001A700D4C0023257802202370042100F0D8
:101BA000E1F8C0B22070854209D1084A1378002DAF
:101BB00002D103210B4301E002218B43137038BD96
:101BC000E1020010E2020010E00200101300001019
:101BD00010B5234B20211A681C1C8A431A60214A25
:101BE00000211160C821C04601390029FBD11E4ADD
:101BF000012313601D4A13601160136011681942BC
:101C0000FCD01B4B022805D0032805D02122012837
:101C100004D104E0222202E0186001E040221A60B0
:101C2000236880229343134923600123086801221B
:101C30001842FBD0104B03211960104B00211A6091
:101C400019601A6019681142FCD00D4B01221A600C
:101C50000C4B8022196852020A431A6010BDC0461C
:101C60003882044020800440408004404480044086
:101C7000088004400C80044070800440748004405C
:101C8000788004408080044008B500F02DF80C4BAB
:101C900002201A68120B12031A600A4B1A68120B00
:101CA00012031A60084B1A68120B12031A60074BD2
:101CB0001A68120B12031A60FFF78AFF08BDC046AC
:101CC00000800050008001500080025000800350CE
:101CD0001F234209184001238340181C014B920026
:101CE000D050704700E100E008B50A4B40211A6867
:101CF0001F200A431A60FFF7EBFF1E20FFF7E8FFE3
:101D00001D20FFF7E5FF1C20FFF7E2FF024B012239
:101D10001A7008BD80800440E402001070B50E4BBC
:101D2000061C1B780D1C141C002B01D1FFF7DCFFD7
:101D3000013E022E03D8094BB600F35800E0084BD1
:101D40001A68012C03D1AC4014431C6003E0012449
:101D5000AC40A2431A6070BDE4020010A828000045
:101D60000080005038B50F4B051C1B780C1C002B55
:101D700001D1FFF7B9FF0020032D11D8281C012342
:101D800000F0F2FC02040608074A04E0074A02E0F9
:101D9000074A00E0074A1068A3401840431E9841D4
:101DA00038BDC046E4020010FC3F0050FC3F01502B
:101DB000FC3F0250FC3F035070B50A4B041C1B78DB
:101DC0000D1C161C002B01D1FFF78EFFA023DB0595
:101DD0002404E4180423AB40E518002E00D0024E82
:101DE0002E6070BDE4020010FF0F000038B5084BF4
:101DF000041C1B780D1C002B01D1FFF775FF236815
:101E000018229343236023681D43256038BDC046D4
:101E1000E402001010B54F4B1A684F4BD2B2302A73
:101E200053D00ED8182A34D005D8082A16D0102A34
:101E300000D08CE020E0202A5AD0282A00D086E06A
:101E400029E0482A54D004D8382A47D0402A7ED1E5
:101E500048E0502A55D0582A79D168E03F4A0021FD
:101E6000116011683E48445C3E48013104601160D5
:101E700028221A60012242E03B4A00211160374AC1
:101E800037481168445C37480131046011602822EA
:101E90005EE0324A05E0314A3449106809688842F8
:101EA00006D211682E48445C2E48013104604DE092
:101EB0002F4A11688022D205002901D0202145E057
:101EC0002C492D480860102140E08022D2051021C5
:101ED000116008221A608122520010E0822149001C
:101EE000244A33E0224A11680422012919D11CE056
:101EF0008022D2051021116008221A601F4A1D4B52
:101F000026E0194A1748116804681D48E4B2445491
:101F1000013111601068164A1168042201398842A3
:101F200003D28021C9050A6011E01A600FE00E4A51
:101F30000C48116804681248E4B24454013111603D
:101F40000D490C4A116080221021D205116008222F
:101F50001A6010BD04000040180000409C040010EE
:101F600058040010080000401004001098040010ED
:101F70000C040010E8020010010100000301000041
:101F80001404001010B50220FFF722FE0A4B0022B5
:101F90001A600121094B4942196009490424086863
:101FA000A043086007490A60074A1268002A00D067
:101FB0001A60C04610BDC0463C4001400882044043
:101FC00010ED00E0044001400C82044000B50D4BD0
:101FD00001221B68134205D00B490868801808606D
:101FE0000A490A600222134205D0094908680130F3
:101FF000086006490A605A0703D5064B1A68013281
:102000001A6000BD1C000440F402001020000440CF
:10201000EC020010F002001000B50D4B01221B680D
:10202000134205D00B490868801808600A490A6005
:102030000222134205D009490868013008600649A8
:102040000A605A0703D5064B1A6801321A6000BDB0
:102050001C800540F402001020800540EC020010B6
:10206000F0020010F7B5051C00910192FFF73CFE4D
:10207000002D5AD15B4B01261A680227B2431A6021
:102080001A68594C32431A60584B80221968120161
:102090000A431A60564B07221F60564B281C1968CA
:1020A00091431960196831431960534B1968914382
:1020B0001960196831431960504B03211960504B66
:1020C000391C1F602368934323602368321C2360FC
:1020D000FFF724FE321C281C391CFFF76DFE201C64
:1020E000291CFFF783FE009AB24201D0454B00E065
:1020F000454B019A012A01D180221343434A1360C0
:10210000434B02221A60434B196819681968196811
:102110001968196819681B6880213F4B49031960C9
:102120003E4B032119603E4B59E0012D58D12D4BF8
:10213000042219680226914319601968394C0A4330
:102140001A602A4B80221968D2020A431A60364B61
:1021500005221A60354B07221968301C914319601B
:10216000196831431960324B196891431960196835
:10217000314319602F4B00211E6023689343236075
:1021800023682A1C2360FFF7C9FD301C00212A1C8C
:10219000FFF712FE201C0021FFF728FE009B012BF9
:1021A00001D1194B00E0174B019A012A01D180227D
:1021B0001343214A1360214B02221A60204B1968F5
:1021C0001968196819681968196819681B688021E5
:1021D000114BC90119601B4B032119601A4B1A607E
:1021E000F7BDC046048004401C4004408080044089
:1021F000948004406040044064400440B040044087
:102200004C4004400708000047080000000004405C
:10221000100004400800044000E100E01400044005
:1022200004000440084004409C8004405C4004409A
:102230008C40044028400440008005401080054048
:10224000088005401480054004800540F0B5031E59
:1022500012D017E0376819482F408446022FF9D171
:10226000CF5C27606046076814200740042FF9D12F
:10227000134F01333F6802E0104E114C1225934278
:10228000E8D11AE00023012812D016E037680D4883
:102290002F408446022FF9D1CF5C27606046076843
:1022A00014200740042FF9D1074F01333F6802E0A3
:1022B000044E054C12259342E8D1F0BD0C000440B9
:1022C000080004400C80054008800540F0B5031E5E
:1022D0000AD010E0356027680740042FFBD1104F6B
:1022E0003F68CF54013303E00D4E0E4CFF25142000
:1022F0009342EFD113E0002301280AD00FE03560AC
:1023000027680740042FFBD1074F3F68CF540133A4
:1023100003E0054E054CFF2514209342EFD1F0BD9C
:10232000080004400C000440088005400C80054073
:1023300008B50B4B1A6801321A601B68013303D1D0
:10234000084B1A6801321A60074B1A6801321A608A
:102350001A680A2A03D100221A60FFF70BFC08BD95
:10236000FC020010F80200100003001000B5074B3B
:1023700098420AD8064A00231360064A01381060C2
:10238000054A1360054B07221A6000BDFFFFFF00DE
:10239000FC02001014E000E018E000E010E000E0B3
:1023A00000B50C4A1368002800D10120C1438B42BC
:1023B00004D809E011688142FCD301E0591C0818D7
:1023C00011689942F6D203E01168C91A8142FBD321
:1023D00000BDC046FC02001010B5064BFA2118687B
:1023E000054B89001C6800F0C9F9044B5C432018B8
:1023F00010BDC046FC020010F802001037894100F1
:10240000034B01221A60034B1A6801321A607047AD
:1024100000C0004004030010034B01221A60034B6C
:102420001A6801321A60704700000140080300106A
:10243000034B01221A60034B1A6801321A6070477D
:10244000004001400C030010034B01221A60034BB3
:102450001A6801321A6070470080014010030010B2
:1024600008B5184B1A680E231340062B0DD1164BD6
:102470009E221B68DBB2134204D0144A5360144BF3
:102480001B681EE0D9071CD501E0042B05D1104BB9
:102490001868C0B200F0D8F813E00C2B06D10B4B33
:1024A0008022596852000A435A600AE0022B08D180
:1024B000054B1A68054B910601D5002200E0012268
:1024C0009A6008BD0880004014800040140300108A
:1024D00000800040004870471403001070B52B4C7A
:1024E0002B4B80229203DA6700219022061C201CCD
:1024F00000F0BBF80023A36000F078F8254B072517
:102500001A68254CAA431A60196801221143196000
:10251000224B1968A9431960196811431960204BAF
:10252000802118684901014319601E4B1E481A603A
:102530008322226019681D4B1B68584300F01EF966
:10254000311C000900F01AF91949030A194A0B60F5
:10255000C0B2032310602360174B1D60174B18682F
:1025600060201C680440602CFBD101E0146800E08E
:1025700001201C680442F9D1044B01221A70104B4F
:10258000802292031A6005230B6070BD14030010B3
:1025900004E100E0A44004400C800040A840044056
:1025A0008080044098800440001BB700788004407D
:1025B00004800040008000400880004014800040FB
:1025C00000E100E030B5074C2022074B06E025680B
:1025D0001542FCD0057801391D6001300029F6D183
:1025E00030BDC046148000400080004008B5FFF7B1
:1025F00071FF0023437308BD08B5FFF76BFFC27B73
:10260000031C8218107CDA7B7F2101320A40DA73C6
:102610005A7B013AD2B25A7308BD70B50C1C051C26
:10262000FFF758FF0023061C236006E0FFF7E4FFD6
:1026300028702368013501332360737B002BF5D1AB
:102640002068431E984170BD10B5041CFFF742FF7F
:10265000837B7F22C3181C74837B013313408373F5
:10266000437B0133DBB2437310BD30B50B040D0661
:102670001D430D430B021D430323041C93420DD243
:1026800018420BD1131C043B20C4032BFBD8141F8E
:10269000A4080134A40003231A400419002301E014
:1026A000E15401339342FBD130BD0000044B0421BF
:1026B0001A688A431A60034B1A6801321A6070471D
:1026C00000400040A00400100020704708B5FFF74C
:1026D000DBFA1148FFF74AFEFFF706FBE120400254
:1026E000FFF7FCFE022005210122FFF717FB002265
:1026F00002200521FFF760FB08480021FFF776FB69
:10270000002007210122FFF709FB00200721021CFE
:10271000FFF752FB08BDC046E02E000044400440D5
:1027200000B5FEE700B5FEE708B50A4B0A4A0B49BB
:1027300003E010780132187001338B42F9D3084B53
:102740000849002201E01A7001338B42FBD3FDF7E8
:10275000F3FCFEE700000010B42800001400001095
:1027600014000010A404001002B471464908490086
:10277000095C49008E4402BC7047C046002934D031
:102780000123002210B488422CD301242407A14243
:1027900004D2814202D209011B01F8E7E400A14200
:1027A00004D2814202D249005B00F8E7884201D39B
:1027B000401A1A434C08A04202D3001B5C08224373
:1027C0008C08A04202D3001B9C082243CC08A042E4
:1027D00002D3001BDC082243002803D01B0901D0D0
:1027E0000909E3E7101C10BC7047002801D0002045
:1027F000C04307B4024802A14018029003BDC0467E
:10280000190000000029F0D003B5FFF7B9FF0EBC96
:102810004243891A1847C0467047C04620222A2BD7
:102820002C5B3D5D7C7F00809A90B68EB78F80D206
:10283000D3D4D8D7DE8E8F909292E299E3EAEB5907
:10284000999A9D9C9D9E9FB5D6E0E9A5A5A6A7A8AF
:10285000A9AAABAC21AEAFB0B1B2B3B4B5B6B7B8FC
:10286000B9BABBBCBDBEBFC0C1C2C3C4C5C7C7C85F
:10287000C9CACBCCCDCECFD1D1D2D3D4D5D6D7D84F
:10288000D9DADBDCDDDEDFE0E1E2E3E5E5E6E7E740
:10289000E9EAEBEDEDEEEFF0F1F2F3F4F5F6F7F82F
:1028A000F9FAFBFCFDFEFF000080015000800250A1
:0428B0000080035051
:1028B40068656C6C6F00303030306C7563682E6402
:0428C400617400013A
:0400000300002729A9
:00000001FF
